{
  "abi": [
    {
      "inputs": [
        {
          "internalType": "address",
          "name": "_target",
          "type": "address"
        },
        {
          "internalType": "uint256",
          "name": "_value",
          "type": "uint256"
        },
        {
          "internalType": "bytes",
          "name": "_data",
          "type": "bytes"
        },
        {
          "internalType": "uint8",
          "name": "_operation",
          "type": "uint8"
        }
      ],
      "name": "execute",
      "outputs": [
        {
          "internalType": "bytes",
          "name": "_result",
          "type": "bytes"
        }
      ],
      "stateMutability": "payable",
      "type": "function"
    },
    {
      "inputs": [
        {
          "internalType": "bytes32",
          "name": "hash",
          "type": "bytes32"
        },
        {
          "internalType": "bytes",
          "name": "signature",
          "type": "bytes"
        }
      ],
      "name": "isValidSignature",
      "outputs": [
        {
          "internalType": "bytes4",
          "name": "magicValue",
          "type": "bytes4"
        }
      ],
      "stateMutability": "view",
      "type": "function"
    },
    {
      "inputs": [
        {
          "internalType": "address",
          "name": "signer",
          "type": "address"
        },
        {
          "internalType": "bytes",
          "name": "",
          "type": "bytes"
        }
      ],
      "name": "isValidSigner",
      "outputs": [
        {
          "internalType": "bytes4",
          "name": "",
          "type": "bytes4"
        }
      ],
      "stateMutability": "view",
      "type": "function"
    },
    {
      "inputs": [
        {
          "internalType": "address",
          "name": "",
          "type": "address"
        },
        {
          "internalType": "address",
          "name": "",
          "type": "address"
        },
        {
          "internalType": "uint256[]",
          "name": "",
          "type": "uint256[]"
        },
        {
          "internalType": "uint256[]",
          "name": "",
          "type": "uint256[]"
        },
        {
          "internalType": "bytes",
          "name": "",
          "type": "bytes"
        }
      ],
      "name": "onERC1155BatchReceived",
      "outputs": [
        {
          "internalType": "bytes4",
          "name": "",
          "type": "bytes4"
        }
      ],
      "stateMutability": "pure",
      "type": "function"
    },
    {
      "inputs": [
        {
          "internalType": "address",
          "name": "",
          "type": "address"
        },
        {
          "internalType": "address",
          "name": "",
          "type": "address"
        },
        {
          "internalType": "uint256",
          "name": "",
          "type": "uint256"
        },
        {
          "internalType": "uint256",
          "name": "",
          "type": "uint256"
        },
        {
          "internalType": "bytes",
          "name": "",
          "type": "bytes"
        }
      ],
      "name": "onERC1155Received",
      "outputs": [
        {
          "internalType": "bytes4",
          "name": "",
          "type": "bytes4"
        }
      ],
      "stateMutability": "pure",
      "type": "function"
    },
    {
      "inputs": [
        {
          "internalType": "address",
          "name": "",
          "type": "address"
        },
        {
          "internalType": "address",
          "name": "",
          "type": "address"
        },
        {
          "internalType": "uint256",
          "name": "receivedTokenId",
          "type": "uint256"
        },
        {
          "internalType": "bytes",
          "name": "",
          "type": "bytes"
        }
      ],
      "name": "onERC721Received",
      "outputs": [
        {
          "internalType": "bytes4",
          "name": "",
          "type": "bytes4"
        }
      ],
      "stateMutability": "view",
      "type": "function"
    },
    {
      "inputs": [],
      "name": "owner",
      "outputs": [
        {
          "internalType": "address",
          "name": "",
          "type": "address"
        }
      ],
      "stateMutability": "view",
      "type": "function"
    },
    {
      "inputs": [],
      "name": "state",
      "outputs": [
        {
          "internalType": "uint256",
          "name": "",
          "type": "uint256"
        }
      ],
      "stateMutability": "view",
      "type": "function"
    },
    {
      "inputs": [
        {
          "internalType": "bytes4",
          "name": "interfaceId",
          "type": "bytes4"
        }
      ],
      "name": "supportsInterface",
      "outputs": [
        {
          "internalType": "bool",
          "name": "",
          "type": "bool"
        }
      ],
      "stateMutability": "pure",
      "type": "function"
    },
    {
      "inputs": [],
      "name": "token",
      "outputs": [
        {
          "internalType": "uint256",
          "name": "",
          "type": "uint256"
        },
        {
          "internalType": "address",
          "name": "",
          "type": "address"
        },
        {
          "internalType": "uint256",
          "name": "",
          "type": "uint256"
        }
      ],
      "stateMutability": "view",
      "type": "function"
    },
    {
      "inputs": [
        {
          "internalType": "address",
          "name": "implementation_",
          "type": "address"
        }
      ],
      "name": "upgrade",
      "outputs": [],
      "stateMutability": "nonpayable",
      "type": "function"
    },
    {
      "stateMutability": "payable",
      "type": "receive"
    }
  ],
  "bytecode": {
    "object": "0x608060405234801561001057600080fd5b506111e3806100206000396000f3fe6080604052600436106100a05760003560e01c8063523e326011610064578063523e32601461017c5780638da5cb5b1461019c578063bc197c81146101c9578063c19d93fb146101f5578063f23a6e6114610219578063fc0c546a1461024557600080fd5b806301ffc9a7146100ac5780630900f010146100e1578063150b7a02146101035780631626ba7e1461013c578063519454471461015c57600080fd5b366100a757005b600080fd5b3480156100b857600080fd5b506100cc6100c7366004610ba9565b61027d565b60405190151581526020015b60405180910390f35b3480156100ed57600080fd5b506101016100fc366004610beb565b610305565b005b34801561010f57600080fd5b5061012361011e366004610cbf565b6103fe565b6040516001600160e01b031990911681526020016100d8565b34801561014857600080fd5b50610123610157366004610d2b565b61041b565b61016f61016a366004610db4565b610452565b6040516100d89190610e7e565b34801561018857600080fd5b50610123610197366004610e91565b61059e565b3480156101a857600080fd5b506101b16105bf565b6040516001600160a01b0390911681526020016100d8565b3480156101d557600080fd5b506101236101e4366004610f66565b63bc197c8160e01b95945050505050565b34801561020157600080fd5b5061020b60005481565b6040519081526020016100d8565b34801561022557600080fd5b50610123610234366004611014565b63f23a6e6160e01b95945050505050565b34801561025157600080fd5b5061025a610655565b604080519384526001600160a01b039092166020840152908201526060016100d8565b60006001600160e01b03198216636faff5f160e01b14806102ae57506001600160e01b03198216635194544760e01b145b806102c957506001600160e01b03198216630271189760e51b145b806102e457506001600160e01b03198216630a85bd0160e11b145b806102ff57506001600160e01b031982166301ffc9a760e01b145b92915050565b61030e3361066d565b6103555760405162461bcd60e51b815260206004820152601360248201527221b0b63632b91034b9903737ba1037bbb732b960691b60448201526064015b60405180910390fd5b6001600160a01b0381166103ab5760405162461bcd60e51b815260206004820152601e60248201527f496e76616c696420696d706c656d656e746174696f6e20616464726573730000604482015260640161034c565b60008081546103b99061107d565b909155507f360894a13ba1a3210667c828492db98dca3e2076cc3735a920a3ca505d382bbc80546001600160a01b0319166001600160a01b0392909216919091179055565b600061040a3384610692565b50630a85bd0160e11b949350505050565b6000806104306104296105bf565b85856108fb565b905080156104485750630b135d3f60e11b90506102ff565b5060009392505050565b606061045d3361066d565b61049f5760405162461bcd60e51b815260206004820152601360248201527221b0b63632b91034b9903737ba1037bbb732b960691b604482015260640161034c565b60ff8216156104fb5760405162461bcd60e51b815260206004820152602260248201527f4f6e6c792063616c6c206f7065726174696f6e732061726520737570706f7274604482015261195960f21b606482015260840161034c565b60008081546105099061107d565b919050819055506000866001600160a01b031686868660405161052d9291906110a4565b60006040518083038185875af1925050503d806000811461056a576040519150601f19603f3d011682016040523d82523d6000602084013e61056f565b606091505b509250905081816105935760405162461bcd60e51b815260040161034c9190610e7e565b505095945050505050565b60006105a98461066d565b156104485750630291f19360e51b5b9392505050565b6000806000806105cd610655565b9250925092504683146105e4576000935050505090565b6040516331a9108f60e11b8152600481018290526001600160a01b03831690636352211e90602401602060405180830381865afa158015610629573d6000803e3d6000fd5b505050506040513d601f19601f8201168201806040525081019061064d91906110b4565b935050505090565b6000806000610662610a3d565b925092509250909192565b60006106776105bf565b6001600160a01b0316826001600160a01b0316149050919050565b600080600061069f610655565b92509250925046831415806106c65750816001600160a01b0316856001600160a01b031614155b806106d15750808414155b6107135760405162461bcd60e51b815260206004820152601360248201527221b0b73737ba1037bbb7103cb7bab939b2b63360691b604482015260640161034c565b600061071d6105bf565b9050306001600160a01b038216036107475760405162461bcd60e51b815260040161034c906110d1565b60005b6001600160a01b0382163b156108f257816001600160a01b031663fc0c546a6040518163ffffffff1660e01b8152600401606060405180830381865afa9250505080156107b4575060408051601f3d908101601f191682019092526107b191810190611108565b60015b156108f25746831415806107da5750896001600160a01b0316826001600160a01b031614155b806107e55750888114155b6108015760405162461bcd60e51b815260040161034c906110d1565b6040516331a9108f60e11b8152600481018290526001600160a01b03831690636352211e90602401602060405180830381865afa158015610846573d6000803e3d6000fd5b505050506040513d601f19601f8201168201806040525081019061086a91906110b4565b9450306001600160a01b038616036108945760405162461bcd60e51b815260040161034c906110d1565b505050806001019050806005036108ed5760405162461bcd60e51b815260206004820152601860248201527f4f776e65727368697020636861696e20746f6f20646565700000000000000000604482015260640161034c565b61074a565b50505050505050565b600080600061090a8585610a4b565b9092509050600081600481111561092357610923611141565b1480156109415750856001600160a01b0316826001600160a01b0316145b15610951576001925050506105b8565b600080876001600160a01b0316631626ba7e60e01b8888604051602401610979929190611157565b60408051601f198184030181529181526020820180516001600160e01b03166001600160e01b03199094169390931790925290516109b79190611178565b600060405180830381855afa9150503d80600081146109f2576040519150601f19603f3d011682016040523d82523d6000602084013e6109f7565b606091505b5091509150818015610a0a575080516020145b8015610a3157508051630b135d3f60e11b90610a2f9083016020908101908401611194565b145b98975050505050505050565b600080600061066230610a90565b6000808251604103610a815760208301516040840151606085015160001a610a7587828585610ae5565b94509450505050610a89565b506000905060025b9250929050565b60408051606080825260808201909252600091829182918291906020820181803683370190505090506060604d60208301873c80806020019051810190610ad79190611108565b935093509350509193909250565b6000807f7fffffffffffffffffffffffffffffff5d576e7357a4501ddfe92f46681b20a0831115610b1c5750600090506003610ba0565b6040805160008082526020820180845289905260ff881692820192909252606081018690526080810185905260019060a0016020604051602081039080840390855afa158015610b70573d6000803e3d6000fd5b5050604051601f1901519150506001600160a01b038116610b9957600060019250925050610ba0565b9150600090505b94509492505050565b600060208284031215610bbb57600080fd5b81356001600160e01b0319811681146105b857600080fd5b6001600160a01b0381168114610be857600080fd5b50565b600060208284031215610bfd57600080fd5b81356105b881610bd3565b634e487b7160e01b600052604160045260246000fd5b604051601f8201601f1916810167ffffffffffffffff81118282101715610c4757610c47610c08565b604052919050565b600082601f830112610c6057600080fd5b813567ffffffffffffffff811115610c7a57610c7a610c08565b610c8d601f8201601f1916602001610c1e565b818152846020838601011115610ca257600080fd5b816020850160208301376000918101602001919091529392505050565b60008060008060808587031215610cd557600080fd5b8435610ce081610bd3565b93506020850135610cf081610bd3565b925060408501359150606085013567ffffffffffffffff811115610d1357600080fd5b610d1f87828801610c4f565b91505092959194509250565b60008060408385031215610d3e57600080fd5b82359150602083013567ffffffffffffffff811115610d5c57600080fd5b610d6885828601610c4f565b9150509250929050565b60008083601f840112610d8457600080fd5b50813567ffffffffffffffff811115610d9c57600080fd5b602083019150836020828501011115610a8957600080fd5b600080600080600060808688031215610dcc57600080fd5b8535610dd781610bd3565b945060208601359350604086013567ffffffffffffffff811115610dfa57600080fd5b610e0688828901610d72565b909450925050606086013560ff81168114610e2057600080fd5b809150509295509295909350565b60005b83811015610e49578181015183820152602001610e31565b50506000910152565b60008151808452610e6a816020860160208601610e2e565b601f01601f19169290920160200192915050565b6020815260006105b86020830184610e52565b600080600060408486031215610ea657600080fd5b8335610eb181610bd3565b9250602084013567ffffffffffffffff811115610ecd57600080fd5b610ed986828701610d72565b9497909650939450505050565b600082601f830112610ef757600080fd5b8135602067ffffffffffffffff821115610f1357610f13610c08565b8160051b610f22828201610c1e565b9283528481018201928281019087851115610f3c57600080fd5b83870192505b84831015610f5b57823582529183019190830190610f42565b979650505050505050565b600080600080600060a08688031215610f7e57600080fd5b8535610f8981610bd3565b94506020860135610f9981610bd3565b9350604086013567ffffffffffffffff80821115610fb657600080fd5b610fc289838a01610ee6565b94506060880135915080821115610fd857600080fd5b610fe489838a01610ee6565b93506080880135915080821115610ffa57600080fd5b5061100788828901610c4f565b9150509295509295909350565b600080600080600060a0868803121561102c57600080fd5b853561103781610bd3565b9450602086013561104781610bd3565b93506040860135925060608601359150608086013567ffffffffffffffff81111561107157600080fd5b61100788828901610c4f565b60006001820161109d57634e487b7160e01b600052601160045260246000fd5b5060010190565b8183823760009101908152919050565b6000602082840312156110c657600080fd5b81516105b881610bd3565b60208082526018908201527f546f6b656e20696e206f776e65727368697020636861696e0000000000000000604082015260600190565b60008060006060848603121561111d57600080fd5b83519250602084015161112f81610bd3565b80925050604084015190509250925092565b634e487b7160e01b600052602160045260246000fd5b8281526040602082015260006111706040830184610e52565b949350505050565b6000825161118a818460208701610e2e565b9190910192915050565b6000602082840312156111a657600080fd5b505191905056fea26469706673582212208a3df7f43c82ec21579e5ab129fbd53bcb5ccf928187f29453cd3d66f5f1d87a64736f6c63430008110033",
    "linkReferences": {}
  },
  "methodIdentifiers": {
    "execute(address,uint256,bytes,uint8)": "51945447",
    "isValidSignature(bytes32,bytes)": "1626ba7e",
    "isValidSigner(address,bytes)": "523e3260",
    "onERC1155BatchReceived(address,address,uint256[],uint256[],bytes)": "bc197c81",
    "onERC1155Received(address,address,uint256,uint256,bytes)": "f23a6e61",
    "onERC721Received(address,address,uint256,bytes)": "150b7a02",
    "owner()": "8da5cb5b",
    "state()": "c19d93fb",
    "supportsInterface(bytes4)": "01ffc9a7",
    "token()": "fc0c546a",
    "upgrade(address)": "0900f010"
  },
  "id": 45
}